{
  "contractName": "Patient",
  "abi": [
    {
      "constant": true,
      "inputs": [],
      "name": "breath",
      "outputs": [
        {
          "name": "",
          "type": "uint256"
        }
      ],
      "payable": false,
      "stateMutability": "view",
      "type": "function"
    },
    {
      "constant": true,
      "inputs": [],
      "name": "dateOfBirth",
      "outputs": [
        {
          "name": "",
          "type": "uint256"
        }
      ],
      "payable": false,
      "stateMutability": "view",
      "type": "function"
    },
    {
      "constant": true,
      "inputs": [],
      "name": "description",
      "outputs": [
        {
          "name": "",
          "type": "string"
        }
      ],
      "payable": false,
      "stateMutability": "view",
      "type": "function"
    },
    {
      "constant": true,
      "inputs": [],
      "name": "gender",
      "outputs": [
        {
          "name": "",
          "type": "string"
        }
      ],
      "payable": false,
      "stateMutability": "view",
      "type": "function"
    },
    {
      "constant": true,
      "inputs": [],
      "name": "doctor",
      "outputs": [
        {
          "name": "",
          "type": "address"
        }
      ],
      "payable": false,
      "stateMutability": "view",
      "type": "function"
    },
    {
      "constant": true,
      "inputs": [],
      "name": "bloodPressure",
      "outputs": [
        {
          "name": "",
          "type": "uint256"
        }
      ],
      "payable": false,
      "stateMutability": "view",
      "type": "function"
    },
    {
      "constant": true,
      "inputs": [],
      "name": "weight",
      "outputs": [
        {
          "name": "",
          "type": "uint256"
        }
      ],
      "payable": false,
      "stateMutability": "view",
      "type": "function"
    },
    {
      "constant": true,
      "inputs": [],
      "name": "hospital",
      "outputs": [
        {
          "name": "",
          "type": "address"
        }
      ],
      "payable": false,
      "stateMutability": "view",
      "type": "function"
    },
    {
      "constant": true,
      "inputs": [],
      "name": "temperature",
      "outputs": [
        {
          "name": "",
          "type": "uint256"
        }
      ],
      "payable": false,
      "stateMutability": "view",
      "type": "function"
    },
    {
      "constant": true,
      "inputs": [],
      "name": "pulse",
      "outputs": [
        {
          "name": "",
          "type": "uint256"
        }
      ],
      "payable": false,
      "stateMutability": "view",
      "type": "function"
    },
    {
      "constant": true,
      "inputs": [],
      "name": "medicalHistory",
      "outputs": [
        {
          "name": "",
          "type": "string"
        }
      ],
      "payable": false,
      "stateMutability": "view",
      "type": "function"
    },
    {
      "inputs": [
        {
          "name": "_gender",
          "type": "string"
        },
        {
          "name": "_dateOfBirth",
          "type": "uint256"
        },
        {
          "name": "_medicalHistory",
          "type": "string"
        },
        {
          "name": "_breath",
          "type": "uint256"
        },
        {
          "name": "_bloodPressure",
          "type": "uint256"
        },
        {
          "name": "_weight",
          "type": "uint256"
        },
        {
          "name": "_pulse",
          "type": "uint256"
        },
        {
          "name": "_temperature",
          "type": "uint256"
        },
        {
          "name": "_description",
          "type": "string"
        },
        {
          "name": "_doctor",
          "type": "address"
        },
        {
          "name": "_hospital",
          "type": "address"
        }
      ],
      "payable": false,
      "stateMutability": "nonpayable",
      "type": "constructor"
    }
  ],
  "bytecode": "0x608060405234801561001057600080fd5b506040516108d93803806108d983398101806040528101908080518201929190602001805190602001909291908051820192919060200180519060200190929190805190602001909291908051906020019092919080519060200190929190805190602001909291908051820192919060200180519060200190929190805190602001909291905050508a600090805190602001906100b092919061019b565b508960018190555088600290805190602001906100ce92919061019b565b508760038190555086600481905550856005819055508460068190555083600781905550826008908051906020019061010892919061019b565b5081600960006101000a81548173ffffffffffffffffffffffffffffffffffffffff021916908373ffffffffffffffffffffffffffffffffffffffff16021790555080600a60006101000a81548173ffffffffffffffffffffffffffffffffffffffff021916908373ffffffffffffffffffffffffffffffffffffffff1602179055505050505050505050505050610240565b828054600181600116156101000203166002900490600052602060002090601f016020900481019282601f106101dc57805160ff191683800117855561020a565b8280016001018555821561020a579182015b828111156102095782518255916020019190600101906101ee565b5b509050610217919061021b565b5090565b61023d91905b80821115610239576000816000905550600101610221565b5090565b90565b61068a8061024f6000396000f3006080604052600436106100af576000357c0100000000000000000000000000000000000000000000000000000000900463ffffffff1680631b7d5d1d146100b4578063615dac4e146100df5780637284e4161461010a57806379caad861461019a5780637ea7118c1461022a57806394c122c614610281578063a1aab33f146102ac578063aa2fedde146102d7578063adccea121461032e578063deb189b514610359578063e0a4c8d614610384575b600080fd5b3480156100c057600080fd5b506100c9610414565b6040518082815260200191505060405180910390f35b3480156100eb57600080fd5b506100f461041a565b6040518082815260200191505060405180910390f35b34801561011657600080fd5b5061011f610420565b6040518080602001828103825283818151815260200191508051906020019080838360005b8381101561015f578082015181840152602081019050610144565b50505050905090810190601f16801561018c5780820380516001836020036101000a031916815260200191505b509250505060405180910390f35b3480156101a657600080fd5b506101af6104be565b6040518080602001828103825283818151815260200191508051906020019080838360005b838110156101ef5780820151818401526020810190506101d4565b50505050905090810190601f16801561021c5780820380516001836020036101000a031916815260200191505b509250505060405180910390f35b34801561023657600080fd5b5061023f61055c565b604051808273ffffffffffffffffffffffffffffffffffffffff1673ffffffffffffffffffffffffffffffffffffffff16815260200191505060405180910390f35b34801561028d57600080fd5b50610296610582565b6040518082815260200191505060405180910390f35b3480156102b857600080fd5b506102c1610588565b6040518082815260200191505060405180910390f35b3480156102e357600080fd5b506102ec61058e565b604051808273ffffffffffffffffffffffffffffffffffffffff1673ffffffffffffffffffffffffffffffffffffffff16815260200191505060405180910390f35b34801561033a57600080fd5b506103436105b4565b6040518082815260200191505060405180910390f35b34801561036557600080fd5b5061036e6105ba565b6040518082815260200191505060405180910390f35b34801561039057600080fd5b506103996105c0565b6040518080602001828103825283818151815260200191508051906020019080838360005b838110156103d95780820151818401526020810190506103be565b50505050905090810190601f1680156104065780820380516001836020036101000a031916815260200191505b509250505060405180910390f35b60035481565b60015481565b60088054600181600116156101000203166002900480601f0160208091040260200160405190810160405280929190818152602001828054600181600116156101000203166002900480156104b65780601f1061048b576101008083540402835291602001916104b6565b820191906000526020600020905b81548152906001019060200180831161049957829003601f168201915b505050505081565b60008054600181600116156101000203166002900480601f0160208091040260200160405190810160405280929190818152602001828054600181600116156101000203166002900480156105545780601f1061052957610100808354040283529160200191610554565b820191906000526020600020905b81548152906001019060200180831161053757829003601f168201915b505050505081565b600960009054906101000a900473ffffffffffffffffffffffffffffffffffffffff1681565b60045481565b60055481565b600a60009054906101000a900473ffffffffffffffffffffffffffffffffffffffff1681565b60075481565b60065481565b60028054600181600116156101000203166002900480601f0160208091040260200160405190810160405280929190818152602001828054600181600116156101000203166002900480156106565780601f1061062b57610100808354040283529160200191610656565b820191906000526020600020905b81548152906001019060200180831161063957829003601f168201915b5050505050815600a165627a7a723058208ec844da0a40125ecdb6454479c857d5b7f1c7eddaa3219ff10819752ddd0a1b0029",
  "source": "pragma solidity ^0.4.2;\r\n\r\ncontract Patient {    \r\n    string public gender;\r\n    uint public dateOfBirth;\r\n    string public medicalHistory;\r\n    uint public breath;\r\n    uint public bloodPressure;\r\n    uint public weight;\r\n    uint public pulse;\r\n    uint public temperature;\r\n    string public description;\r\n    address public doctor;\r\n    address public hospital;\r\n    constructor(string _gender, uint _dateOfBirth,string _medicalHistory,\r\n        uint _breath, uint _bloodPressure, uint _weight, uint _pulse, uint _temperature,\r\n        string _description, address _doctor, address _hospital\r\n    ) public {\r\n        gender = _gender;\r\n        dateOfBirth = _dateOfBirth;\r\n        medicalHistory = _medicalHistory;\r\n        breath = _breath;\r\n        bloodPressure = _bloodPressure;\r\n        weight = _weight;\r\n        pulse = _pulse;\r\n        temperature = _temperature;\r\n        description = _description;\r\n        doctor = _doctor;\r\n        hospital = _hospital;\r\n    }\r\n        \r\n}",
  "sourcePath": "E:\\CNTT\\Fetch-Company\\DappathonContract\\contracts\\PatientContract.sol",
  "compiler": {
    "name": "solc",
    "version": "0.4.24+commit.e67f0147.Emscripten.clang"
  },
  "schemaVersion": "2.0.1",
  "updatedAt": "2018-09-29T10:25:10.882Z"
}