{
  "contractName": "Hospital",
  "abi": [
    {
      "constant": true,
      "inputs": [
        {
          "name": "",
          "type": "address"
        }
      ],
      "name": "patientInfo",
      "outputs": [
        {
          "name": "gender",
          "type": "string"
        },
        {
          "name": "dateOfBirth",
          "type": "uint256"
        }
      ],
      "payable": false,
      "stateMutability": "view",
      "type": "function"
    },
    {
      "constant": true,
      "inputs": [
        {
          "name": "",
          "type": "address"
        },
        {
          "name": "",
          "type": "uint256"
        }
      ],
      "name": "patients",
      "outputs": [
        {
          "name": "patientContractAddress",
          "type": "address"
        },
        {
          "name": "dateCheckIn",
          "type": "uint256"
        },
        {
          "name": "dateCheckOut",
          "type": "uint256"
        }
      ],
      "payable": false,
      "stateMutability": "view",
      "type": "function"
    },
    {
      "constant": true,
      "inputs": [],
      "name": "patient",
      "outputs": [
        {
          "name": "",
          "type": "address"
        }
      ],
      "payable": false,
      "stateMutability": "view",
      "type": "function"
    },
    {
      "constant": true,
      "inputs": [
        {
          "name": "",
          "type": "address"
        }
      ],
      "name": "hospitals",
      "outputs": [
        {
          "name": "",
          "type": "bool"
        }
      ],
      "payable": false,
      "stateMutability": "view",
      "type": "function"
    },
    {
      "constant": true,
      "inputs": [],
      "name": "patientContract",
      "outputs": [
        {
          "name": "",
          "type": "address"
        }
      ],
      "payable": false,
      "stateMutability": "view",
      "type": "function"
    },
    {
      "inputs": [],
      "payable": false,
      "stateMutability": "nonpayable",
      "type": "constructor"
    },
    {
      "constant": true,
      "inputs": [
        {
          "name": "_patientAddress",
          "type": "address"
        }
      ],
      "name": "getPatientsLength",
      "outputs": [
        {
          "name": "",
          "type": "uint256"
        }
      ],
      "payable": false,
      "stateMutability": "view",
      "type": "function"
    },
    {
      "constant": false,
      "inputs": [
        {
          "name": "_patientContract",
          "type": "address"
        },
        {
          "name": "_patient",
          "type": "address"
        },
        {
          "name": "_date",
          "type": "uint256"
        }
      ],
      "name": "startTreatment",
      "outputs": [],
      "payable": false,
      "stateMutability": "nonpayable",
      "type": "function"
    },
    {
      "constant": false,
      "inputs": [
        {
          "name": "_patient",
          "type": "address"
        },
        {
          "name": "_date",
          "type": "uint256"
        },
        {
          "name": "_patientContractAddress",
          "type": "address"
        }
      ],
      "name": "endTreatment",
      "outputs": [],
      "payable": false,
      "stateMutability": "nonpayable",
      "type": "function"
    },
    {
      "constant": false,
      "inputs": [
        {
          "name": "_patient",
          "type": "address"
        },
        {
          "name": "_gender",
          "type": "string"
        },
        {
          "name": "_dateOfBirth",
          "type": "uint256"
        }
      ],
      "name": "updatePatientInfo",
      "outputs": [],
      "payable": false,
      "stateMutability": "nonpayable",
      "type": "function"
    },
    {
      "constant": false,
      "inputs": [
        {
          "name": "_hospital",
          "type": "address"
        }
      ],
      "name": "addHospital",
      "outputs": [],
      "payable": false,
      "stateMutability": "nonpayable",
      "type": "function"
    }
  ],
  "bytecode": "0x608060405234801561001057600080fd5b5073cb000a6bd06efed410b8438100c46c98f685c6166000806101000a81548173ffffffffffffffffffffffffffffffffffffffff021916908373ffffffffffffffffffffffffffffffffffffffff160217905550736320ce7e63b52feb7498170f4316b4d46a5f7d82600160006101000a81548173ffffffffffffffffffffffffffffffffffffffff021916908373ffffffffffffffffffffffffffffffffffffffff160217905550610f91806100c96000396000f3006080604052600436106100a4576000357c0100000000000000000000000000000000000000000000000000000000900463ffffffff1680631b470bc7146100a957806329b36c47146100ec5780636142d2dc14610159578063981bce3e1461021c578063ab89203e146102b7578063bd96bd2014610324578063bf807a7d1461037b578063f093cf80146103d2578063f18e48171461042d578063f6e8e18f146104c0575b600080fd5b3480156100b557600080fd5b506100ea600480360381019080803573ffffffffffffffffffffffffffffffffffffffff169060200190929190505050610517565b005b3480156100f857600080fd5b50610157600480360381019080803573ffffffffffffffffffffffffffffffffffffffff169060200190929190803573ffffffffffffffffffffffffffffffffffffffff1690602001909291908035906020019092919050505061068e565b005b34801561016557600080fd5b5061019a600480360381019080803573ffffffffffffffffffffffffffffffffffffffff1690602001909291905050506108df565b6040518080602001838152602001828103825284818151815260200191508051906020019080838360005b838110156101e05780820151818401526020810190506101c5565b50505050905090810190601f16801561020d5780820380516001836020036101000a031916815260200191505b50935050505060405180910390f35b34801561022857600080fd5b50610267600480360381019080803573ffffffffffffffffffffffffffffffffffffffff1690602001909291908035906020019092919050505061099b565b604051808473ffffffffffffffffffffffffffffffffffffffff1673ffffffffffffffffffffffffffffffffffffffff168152602001838152602001828152602001935050505060405180910390f35b3480156102c357600080fd5b50610322600480360381019080803573ffffffffffffffffffffffffffffffffffffffff16906020019092919080359060200190929190803573ffffffffffffffffffffffffffffffffffffffff169060200190929190505050610a01565b005b34801561033057600080fd5b50610339610c69565b604051808273ffffffffffffffffffffffffffffffffffffffff1673ffffffffffffffffffffffffffffffffffffffff16815260200191505060405180910390f35b34801561038757600080fd5b506103bc600480360381019080803573ffffffffffffffffffffffffffffffffffffffff169060200190929190505050610c8f565b6040518082815260200191505060405180910390f35b3480156103de57600080fd5b50610413600480360381019080803573ffffffffffffffffffffffffffffffffffffffff169060200190929190505050610cdb565b604051808215151515815260200191505060405180910390f35b34801561043957600080fd5b506104be600480360381019080803573ffffffffffffffffffffffffffffffffffffffff169060200190929190803590602001908201803590602001908080601f016020809104026020016040519081016040528093929190818152602001838380828437820191505050505050919291929080359060200190929190505050610cfb565b005b3480156104cc57600080fd5b506104d5610e9a565b604051808273ffffffffffffffffffffffffffffffffffffffff1673ffffffffffffffffffffffffffffffffffffffff16815260200191505060405180910390f35b6000809054906101000a900473ffffffffffffffffffffffffffffffffffffffff1673ffffffffffffffffffffffffffffffffffffffff163373ffffffffffffffffffffffffffffffffffffffff1614806105bf5750600160009054906101000a900473ffffffffffffffffffffffffffffffffffffffff1673ffffffffffffffffffffffffffffffffffffffff163373ffffffffffffffffffffffffffffffffffffffff16145b1515610633576040517f08c379a00000000000000000000000000000000000000000000000000000000081526004018080602001828103825260168152602001807f4f6e6c792061646d696e2063616e20646f20746869730000000000000000000081525060200191505060405180910390fd5b6001600460008373ffffffffffffffffffffffffffffffffffffffff1673ffffffffffffffffffffffffffffffffffffffff16815260200190815260200160002060006101000a81548160ff02191690831515021790555050565b60011515600460003373ffffffffffffffffffffffffffffffffffffffff1673ffffffffffffffffffffffffffffffffffffffff16815260200190815260200160002060009054906101000a900460ff16151514151561077c576040517f08c379a00000000000000000000000000000000000000000000000000000000081526004018080602001828103825260278152602001807f4f6e6c7920686f73706974616c20696e207468652073797374656d2063616e2081526020017f646f20746869730000000000000000000000000000000000000000000000000081525060400191505060405180910390fd5b82600660006101000a81548173ffffffffffffffffffffffffffffffffffffffff021916908373ffffffffffffffffffffffffffffffffffffffff160217905550600260008373ffffffffffffffffffffffffffffffffffffffff1673ffffffffffffffffffffffffffffffffffffffff168152602001908152602001600020606060405190810160405280600660009054906101000a900473ffffffffffffffffffffffffffffffffffffffff1673ffffffffffffffffffffffffffffffffffffffff16815260200183815260200160008152509080600181540180825580915050906001820390600052602060002090600302016000909192909190915060008201518160000160006101000a81548173ffffffffffffffffffffffffffffffffffffffff021916908373ffffffffffffffffffffffffffffffffffffffff1602179055506020820151816001015560408201518160020155505050505050565b6003602052806000526040600020600091509050806000018054600181600116156101000203166002900480601f01602080910402602001604051908101604052809291908181526020018280546001816001161561010002031660029004801561098b5780601f106109605761010080835404028352916020019161098b565b820191906000526020600020905b81548152906001019060200180831161096e57829003601f168201915b5050505050908060010154905082565b6002602052816000526040600020818154811015156109b657fe5b9060005260206000209060030201600091509150508060000160009054906101000a900473ffffffffffffffffffffffffffffffffffffffff16908060010154908060020154905083565b600060011515600460003373ffffffffffffffffffffffffffffffffffffffff1673ffffffffffffffffffffffffffffffffffffffff16815260200190815260200160002060009054906101000a900460ff161515141515610af1576040517f08c379a00000000000000000000000000000000000000000000000000000000081526004018080602001828103825260278152602001807f4f6e6c7920686f73706974616c20696e207468652073797374656d2063616e2081526020017f646f20746869730000000000000000000000000000000000000000000000000081525060400191505060405180910390fd5b600090505b600260008573ffffffffffffffffffffffffffffffffffffffff1673ffffffffffffffffffffffffffffffffffffffff16815260200190815260200160002080549050811015610c63578173ffffffffffffffffffffffffffffffffffffffff16600260008673ffffffffffffffffffffffffffffffffffffffff1673ffffffffffffffffffffffffffffffffffffffff16815260200190815260200160002082815481101515610ba357fe5b906000526020600020906003020160000160009054906101000a900473ffffffffffffffffffffffffffffffffffffffff1673ffffffffffffffffffffffffffffffffffffffff161415610c585782600260008673ffffffffffffffffffffffffffffffffffffffff1673ffffffffffffffffffffffffffffffffffffffff16815260200190815260200160002082815481101515610c3e57fe5b906000526020600020906003020160020181905550610c63565b600181019050610af6565b50505050565b600560009054906101000a900473ffffffffffffffffffffffffffffffffffffffff1681565b6000600260008373ffffffffffffffffffffffffffffffffffffffff1673ffffffffffffffffffffffffffffffffffffffff168152602001908152602001600020805490509050919050565b60046020528060005260406000206000915054906101000a900460ff1681565b6000809054906101000a900473ffffffffffffffffffffffffffffffffffffffff1673ffffffffffffffffffffffffffffffffffffffff163373ffffffffffffffffffffffffffffffffffffffff161480610da35750600160009054906101000a900473ffffffffffffffffffffffffffffffffffffffff1673ffffffffffffffffffffffffffffffffffffffff163373ffffffffffffffffffffffffffffffffffffffff16145b1515610e17576040517f08c379a00000000000000000000000000000000000000000000000000000000081526004018080602001828103825260168152602001807f4f6e6c792061646d696e2063616e20646f20746869730000000000000000000081525060200191505060405180910390fd5b604080519081016040528083815260200182815250600360008573ffffffffffffffffffffffffffffffffffffffff1673ffffffffffffffffffffffffffffffffffffffff1681526020019081526020016000206000820151816000019080519060200190610e87929190610ec0565b5060208201518160010155905050505050565b600660009054906101000a900473ffffffffffffffffffffffffffffffffffffffff1681565b828054600181600116156101000203166002900490600052602060002090601f016020900481019282601f10610f0157805160ff1916838001178555610f2f565b82800160010185558215610f2f579182015b82811115610f2e578251825591602001919060010190610f13565b5b509050610f3c9190610f40565b5090565b610f6291905b80821115610f5e576000816000905550600101610f46565b5090565b905600a165627a7a723058209784a887e103d54dc8b3ea5779c513c7b597037c7b6f8bd864ba401fccf6b12b0029",
  "source": "pragma solidity ^0.4.2;        \r\nimport \"./PatientContract.sol\";\r\n\r\ncontract Hospital {\r\n    \r\n    address admin;             \r\n    address admin2;\r\n    \r\n    struct PatientContractInfo {\r\n        address patientContractAddress;       \r\n        uint dateCheckIn;      \r\n        uint dateCheckOut;     \r\n    }\r\n    \r\n    struct Info {\r\n        string gender;\r\n        uint dateOfBirth;\r\n    }\r\n    \r\n    mapping(address => PatientContractInfo[]) public patients;\r\n    mapping(address => Info) public patientInfo;\r\n    mapping(address => bool) public hospitals;\r\n    \r\n    address public patient;\r\n    Patient public patientContract; \r\n    \r\n    constructor() public {\r\n        admin = 0xcB000A6BD06Efed410B8438100C46C98f685c616;\r\n        admin2 = 0x6320CE7E63B52fEb7498170f4316B4d46a5f7d82;\r\n    }\r\n\r\n    function getPatientsLength (address _patientAddress) public view returns (uint) {\r\n        return patients[_patientAddress].length;\r\n    }\r\n    function startTreatment(address _patientContract, address _patient, uint _date) public {\r\n        require(hospitals[msg.sender] == true, \"Only hospital in the system can do this\");\r\n        patientContract = Patient(_patientContract);\r\n        patients[_patient].push(PatientContractInfo(patientContract, _date, 0));\r\n    }\r\n    \r\n    function endTreatment(address _patient, uint _date, address _patientContractAddress) {\r\n        require(hospitals[msg.sender] == true, \"Only hospital in the system can do this\");\r\n        for (uint i = 0; i< patients[_patient].length; i+=1) {\r\n            if (patients[_patient][i].patientContractAddress == _patientContractAddress) {\r\n                patients[_patient][i].dateCheckOut = _date;\r\n                break;\r\n            }\r\n        }\r\n    }\r\n    \r\n    function updatePatientInfo(address _patient ,string _gender, uint _dateOfBirth) {\r\n        require(msg.sender == admin || msg.sender == admin2, \"Only admin can do this\");\r\n        patientInfo[_patient] = Info(_gender, _dateOfBirth);\r\n    }\r\n    \r\n    function addHospital(address _hospital) public {\r\n        require(msg.sender == admin || msg.sender == admin2, \"Only admin can do this\");\r\n        hospitals[_hospital] = true;    \r\n    }\r\n    \r\n}",
  "sourcePath": "E:\\CNTT\\Fetch-Company\\DappathonContract\\contracts\\Hospital.sol",
  "compiler": {
    "name": "solc",
    "version": "0.4.24+commit.e67f0147.Emscripten.clang"
  },
  "schemaVersion": "2.0.1",
  "updatedAt": "2018-09-29T15:30:54.972Z"
}