{
  "contractName": "Patient",
  "abi": [
    {
      "constant": true,
      "inputs": [],
      "name": "bloodPressureMin",
      "outputs": [
        {
          "name": "",
          "type": "uint256"
        }
      ],
      "payable": false,
      "stateMutability": "view",
      "type": "function"
    },
    {
      "constant": true,
      "inputs": [],
      "name": "breath",
      "outputs": [
        {
          "name": "",
          "type": "uint256"
        }
      ],
      "payable": false,
      "stateMutability": "view",
      "type": "function"
    },
    {
      "constant": true,
      "inputs": [],
      "name": "description",
      "outputs": [
        {
          "name": "",
          "type": "string"
        }
      ],
      "payable": false,
      "stateMutability": "view",
      "type": "function"
    },
    {
      "constant": true,
      "inputs": [],
      "name": "bloodPressureMax",
      "outputs": [
        {
          "name": "",
          "type": "uint256"
        }
      ],
      "payable": false,
      "stateMutability": "view",
      "type": "function"
    },
    {
      "constant": true,
      "inputs": [],
      "name": "doctor",
      "outputs": [
        {
          "name": "",
          "type": "address"
        }
      ],
      "payable": false,
      "stateMutability": "view",
      "type": "function"
    },
    {
      "constant": true,
      "inputs": [],
      "name": "weight",
      "outputs": [
        {
          "name": "",
          "type": "uint256"
        }
      ],
      "payable": false,
      "stateMutability": "view",
      "type": "function"
    },
    {
      "constant": true,
      "inputs": [],
      "name": "hospital",
      "outputs": [
        {
          "name": "",
          "type": "address"
        }
      ],
      "payable": false,
      "stateMutability": "view",
      "type": "function"
    },
    {
      "constant": true,
      "inputs": [],
      "name": "temperature",
      "outputs": [
        {
          "name": "",
          "type": "uint256"
        }
      ],
      "payable": false,
      "stateMutability": "view",
      "type": "function"
    },
    {
      "constant": true,
      "inputs": [],
      "name": "pulse",
      "outputs": [
        {
          "name": "",
          "type": "uint256"
        }
      ],
      "payable": false,
      "stateMutability": "view",
      "type": "function"
    },
    {
      "constant": true,
      "inputs": [],
      "name": "medicalHistory",
      "outputs": [
        {
          "name": "",
          "type": "string"
        }
      ],
      "payable": false,
      "stateMutability": "view",
      "type": "function"
    },
    {
      "inputs": [
        {
          "name": "_medicalHistory",
          "type": "string"
        },
        {
          "name": "_breath",
          "type": "uint256"
        },
        {
          "name": "_bloodPressureMin",
          "type": "uint256"
        },
        {
          "name": "_bloodPressureMax",
          "type": "uint256"
        },
        {
          "name": "_weight",
          "type": "uint256"
        },
        {
          "name": "_pulse",
          "type": "uint256"
        },
        {
          "name": "_temperature",
          "type": "uint256"
        },
        {
          "name": "_description",
          "type": "string"
        },
        {
          "name": "_doctor",
          "type": "address"
        },
        {
          "name": "_hospital",
          "type": "address"
        },
        {
          "name": "_department",
          "type": "string"
        }
      ],
      "payable": false,
      "stateMutability": "nonpayable",
      "type": "constructor"
    }
  ],
  "bytecode": "0x608060405234801561001057600080fd5b5060405161079d38038061079d83398101806040528101908080518201929190602001805190602001909291908051906020019092919080519060200190929190805190602001909291908051906020019092919080519060200190929190805182019291906020018051906020019092919080519060200190929190805182019291905050508a600090805190602001906100ad929190610198565b5089600181905550886002819055508760038190555086600481905550856005819055508460068190555083600890805190602001906100ee929190610198565b5082600960006101000a81548173ffffffffffffffffffffffffffffffffffffffff021916908373ffffffffffffffffffffffffffffffffffffffff16021790555081600a60006101000a81548173ffffffffffffffffffffffffffffffffffffffff021916908373ffffffffffffffffffffffffffffffffffffffff1602179055508060079080519060200190610187929190610198565b50505050505050505050505061023d565b828054600181600116156101000203166002900490600052602060002090601f016020900481019282601f106101d957805160ff1916838001178555610207565b82800160010185558215610207579182015b828111156102065782518255916020019190600101906101eb565b5b5090506102149190610218565b5090565b61023a91905b8082111561023657600081600090555060010161021e565b5090565b90565b6105518061024c6000396000f3006080604052600436106100a4576000357c0100000000000000000000000000000000000000000000000000000000900463ffffffff16806312693387146100a95780631b7d5d1d146100d45780637284e416146100ff5780637c93e8ca1461018f5780637ea7118c146101ba578063a1aab33f14610211578063aa2fedde1461023c578063adccea1214610293578063deb189b5146102be578063e0a4c8d6146102e9575b600080fd5b3480156100b557600080fd5b506100be610379565b6040518082815260200191505060405180910390f35b3480156100e057600080fd5b506100e961037f565b6040518082815260200191505060405180910390f35b34801561010b57600080fd5b50610114610385565b6040518080602001828103825283818151815260200191508051906020019080838360005b83811015610154578082015181840152602081019050610139565b50505050905090810190601f1680156101815780820380516001836020036101000a031916815260200191505b509250505060405180910390f35b34801561019b57600080fd5b506101a4610423565b6040518082815260200191505060405180910390f35b3480156101c657600080fd5b506101cf610429565b604051808273ffffffffffffffffffffffffffffffffffffffff1673ffffffffffffffffffffffffffffffffffffffff16815260200191505060405180910390f35b34801561021d57600080fd5b5061022661044f565b6040518082815260200191505060405180910390f35b34801561024857600080fd5b50610251610455565b604051808273ffffffffffffffffffffffffffffffffffffffff1673ffffffffffffffffffffffffffffffffffffffff16815260200191505060405180910390f35b34801561029f57600080fd5b506102a861047b565b6040518082815260200191505060405180910390f35b3480156102ca57600080fd5b506102d3610481565b6040518082815260200191505060405180910390f35b3480156102f557600080fd5b506102fe610487565b6040518080602001828103825283818151815260200191508051906020019080838360005b8381101561033e578082015181840152602081019050610323565b50505050905090810190601f16801561036b5780820380516001836020036101000a031916815260200191505b509250505060405180910390f35b60025481565b60015481565b60088054600181600116156101000203166002900480601f01602080910402602001604051908101604052809291908181526020018280546001816001161561010002031660029004801561041b5780601f106103f05761010080835404028352916020019161041b565b820191906000526020600020905b8154815290600101906020018083116103fe57829003601f168201915b505050505081565b60035481565b600960009054906101000a900473ffffffffffffffffffffffffffffffffffffffff1681565b60045481565b600a60009054906101000a900473ffffffffffffffffffffffffffffffffffffffff1681565b60065481565b60055481565b60008054600181600116156101000203166002900480601f01602080910402602001604051908101604052809291908181526020018280546001816001161561010002031660029004801561051d5780601f106104f25761010080835404028352916020019161051d565b820191906000526020600020905b81548152906001019060200180831161050057829003601f168201915b5050505050815600a165627a7a72305820a4345d99d3e72f6633f167a323a05482a635bdfc23050f7fa244871bad4ea3e90029",
  "source": "pragma solidity ^0.4.2;\r\n\r\ncontract Patient {    \r\n    string public medicalHistory;\r\n    uint public breath;\r\n    uint public bloodPressureMin;\r\n    uint public bloodPressureMax;\r\n    uint public weight;        \r\n    uint public pulse;         \r\n    uint public temperature;   \r\n    string department;\r\n    string public description; \r\n    address public doctor;\r\n    address public hospital;\r\n    constructor (string _medicalHistory,\r\n                uint _breath, uint _bloodPressureMin, \r\n                uint _bloodPressureMax, uint _weight, \r\n                uint _pulse, uint _temperature,\r\n                string _description, address _doctor,\r\n                address _hospital,\r\n                string _department\r\n    ) public {\r\n        medicalHistory = _medicalHistory;\r\n        breath = _breath;\r\n        bloodPressureMin = _bloodPressureMin;\r\n        bloodPressureMax = _bloodPressureMax;\r\n        weight = _weight;\r\n        pulse = _pulse;\r\n        temperature = _temperature;     \r\n        description = _description;     \r\n        doctor = _doctor;\r\n        hospital = _hospital;\r\n        department = _department;\r\n    }\r\n        \r\n}",
  "sourcePath": "E:\\CNTT\\Fetch-Company\\DappathonContract\\contracts\\PatientContract.sol",
  "compiler": {
    "name": "solc",
    "version": "0.4.24+commit.e67f0147.Emscripten.clang"
  },
  "schemaVersion": "2.0.1",
  "updatedAt": "2018-09-29T15:30:54.958Z"
}